S014000054657374436F6E7665796F722E737265631B
S11300000C942A000C9447000C9447000C9447006D
S11300100C9447000C9447000C9447000C94470040
S11300200C9487030C9447000C9447000C949E0393
S11300300C9447000C9447000C9447000C94470020
S11300400C9447000C9447000C9447000C94470010
S11300500C94470011241FBECFE5D4E0DEBFCDBF12
S113006012E0A0E6B0E0E6E1FAE002C005900D92ED
S1130070A23BB107D9F723E0A2EBB2E001C01D9285
S1130080AE31B207E1F70E94F2030C9409050C9417
S1130090000010BC83E089B986E880BD88E98AB98C
S11300A008955D9BFECF8CB908955F9BFECF8CB104
S11300B00895CF93DF93DC014FEF8FEF0FC09C9136
S11300C0242F292730E0F901EE54FE4F40814827C0
S11300D0F901EE54FF4F8081BE011196EB01219787
S11300E0672B69F790E0982F8827842BDF91CF91B5
S11300F00895EF92FF920F931F93CF93DF937C01A8
S11301008B010E945900F701E00FF11F8083F80171
S11301103196EE0DFF1D908382B3826082BBC0E0F6
S1130120D0E007C0F701EC0FFD1F80810E94510051
S11301302196C80101968C179D07A4F782B38D7F81
S113014082BBDF91CF911F910F91FF90EF900895A3
S1130150ACEEB2E09C91EAEBF2E0908311969C91B4
S113016090689183828363E070E0CF010E947900FC
S11301700895ECEEF2E0828190E0982F88272381A5
S1130180822B9C01448150E0542F44276581462BE7
S1130190DA01BA01615071096D37710528F083E005
S11301A00E94A80080E00895840F951F01974E9740
S11301B028F082E00E94A80080E00895EAEBF2E0D3
S11301C08DE180838091ED028183440F428380E03E
S11301D090E063E070E015C0F901EE0FFF1FEA58EC
S11301E0FF4F40815181FB01E654FD4F5083FB01D9
S11301F03196E654FD4F6E5F7F4F40832F5F3F4F34
S113020001968A179B0740F38AEB92E00E947900DB
S113021081E00895EF92FF920F931F93CF93DF93A2
S1130220ECEEF2E0228130E0322F22278381282B6A
S1130230C481D0E0DC2FCC278581C82B8E01CE0170
S11302400197803D974028F083E00E94A80080E059
S11302506EC0C9018C0F9D1F0197883C910528F041
S113026082E00E94A80080E062C0EAEBF2E08DE147
S113027080838091ED028183CE0196958795969532
S11302808795969587957E0147E0E422FF24E11443
S1130290F10411F041E001C040E0840F8093BC02FE
S11302A0D901B695A795B695A795B695A795277044
S11302B03327E0E0F0E040E050E063E070E02BC082
S11302C0ED01CE59DF4F888190E0022E02C0959552
S11302D087950A94E2F781709927042E02C0880F4B
S11302E0991F0A94E2F7EB01C654DD4F9881892BDC
S11302F088834F5F5F4F2F5F3F4F4830510524F095
S11303006F5F7F4F40E050E02830310518F01196C0
S113031020E030E03196E017F10790F2EF2811F079
S11303206F5F7F4F8AEB92E00E94790081E0DF915A
S1130330CF911F910F91FF90EF900895ECEEF2E0B2
S11303405281852F90E0982F88274381842B823314
S1130350910528F082E00E94A80080E00895ACEEA8
S1130360B2E014967C911497272F30E0322F222785
S113037015966C911597262B880F991FFC01EA5846
S1130380FF4F31832083EAEBF2E08DE18083119605
S11303908C918183528343837483658366E070E028
S11303A0CF010E94790081E00895ECEEF2E04281F1
S11303B0842F90E0982F88273381832B883C9105E4
S11303C028F082E00E94A80080E00895BC017695A0
S11303D067957695679576956795877099272091A7
S11303E0F0022F3FA1F45091F102511110C0E1E04D
S11303F0F0E0DF0102C0AA0FBB1F8A95E2F7CD012E
S1130400FB01EE59FF4F9081892B808316C0211187
S113041014C05091F102511110C0E1E0F0E0DF018D
S113042002C0AA0FBB1F8A95E2F7CD01FB01EE596A
S1130430FF4F8095908189238083EAEBF2E08DE180
S11304408083ACEEB2E011968C9111978183428344
S11304503383248315968C91858366E070E0CF0105
S11304600E94790081E00895AF92BF92CF92DF920B
S1130470EF92FF920F931F93CF93DF93ECEEF2E092
S1130480C2802C2D30E0322F2227D3802D29E48006
S11304908E2D90E0982F8827F5808F295C01AC0180
S11304A041505109403B574028F083E00E94A80086
S11304B080E070C0820F931F0197883C910528F05B
S11304C082E00E94A80080E065C0D901B695A79596
S11304D0B695A795B695A7952770332760E070E089
S11304E0E7E0F0E040E050E040C0CF0184519D4F90
S11304F0EC01888190E0042E02C0959587950A94BA
S1130500E2F780FF10C081E090E0022E02C0880F65
S1130510991F0A94E2F78D010E591F4FE801988143
S1130520892B888310C081E090E0022E02C0880FDE
S1130530991F0A94E2F78D010E591F4F8095E80127
S11305409881892388832F5F3F4F4F5F5F4F4830E7
S113055051051CF0319640E050E02830310518F088
S1130560119620E030E06F5F7F4F6A157B0508F439
S1130570BCCFEAEBF2E08DE180838091ED028183D0
S1130580C282D382E482F58266E070E0CF010E94E9
S1130590790081E0DF91CF911F910F91FF90EF904F
S11305A0DF90CF90BF90AF9008950F931F93CF9398
S11305B0DF93ECEEF2E00281802F90E0982F882701
S11305C013819C01212BB901D4818D2F90E0982FA8
S11305D08827C5818C2BDC01AC01415051094B3774
S11305E0510528F083E00E94A80080E03DC0820FFE
S11305F0931F0197C29700F182E00E94A80080E057
S113060033C0F901E451FD4F808190E0982F882791
S1130610F9013196E451FD4F2E5F3F4FE0818E2B5F
S1130620FB01EE0FFF1FEA58FF4F918380834F5F5A
S11306305F4F6F5F7F4F04C040E050E027E030E041
S11306404A175B07F0F2EAEBF2E08DE180838091D8
S1130650ED02818302831383D483C58366E070E053
S1130660CF010E94790081E0DF91CF911F910F911A
S113067008958091ED02853099F028F4813051F08D
S1130680833059F019C08F3089F0803191F0863071
S113069099F409C00E940A0108950E94B9000895BE
S11306A00E94D50108950E949E0108950E9434027B
S11306B008950E94D502089581E00E94A80008953B
S11306C088B38F7B88BB88B3806888BB089588B360
S11306D08F7B88BB88B38F7788BB089520E137E28E
S11306E0AC01429FC001439F900D529F900D112475
S11306F09BBD8ABD089526E1AC01249FC001259FBE
S1130700900D11248C579C4F99BD88BD08951F925C
S11307100F920FB60F9211248F939F938091B6027C
S11307209091B70201969093B7028093B6029F917D
S11307308F910F900FBE0F901F9018951F920F92DC
S11307400FB60F9211242F933F934F935F936F93A0
S11307507F938F939F93AF93BF93CF93DF93EF9345
S1130760FF93C091B402D091B5020E945500C451C8
S1130770DD4F88838091EC028D3109F58091B402BC
S11307809091B50201969093B5028093B4020897B4
S1130790B4F0ECEEF2E0C781D0E0DC2FCC27868108
S11307A0C82B66E070E0CF010E945900C817D90732
S11307B011F40E9439031092B5021092B402FF9111
S11307C0EF91DF91CF91BF91AF919F918F917F91E5
S11307D06F915F914F913F912F910F900FBE0F90AA
S11307E01F9018951ABA80EC8BBB8FEF87BB88BB20
S11307F091B3926391BB82BB8FB5826A8FBD8EB574
S11308008A618EBD89B7846089BF82E090E00E94CE
S11308106E038091B2029091B3020E947B0380E444
S11308209CE997BD86BD0E9449007894E6E7F0E014
S113083080819181C281D3818230910509F479C08C
S11308408330910509F4CCC0019709F0D5C0CE01DD
S11308500E946E03CE9B11C08FE59AEE0197F1F7CB
S113086000C000000E946003E6E7F0E081E090E051
S1130870958384831186108610C08FE59AEE0197C4
S1130880F1F700C000000E946703E6E7F0E015827C
S1130890148281E090E091878087CF9911C08FE323
S11308A09CE90197F1F700C0000081E090E090938B
S11308B07D0080937C009093B9028093B80204C0B9
S11308C010927D0010927C008091B8029091B90240
S11308D0019709F0ABCF8091B6029091B7028E30A8
S11308E0914060F080916000909161000E947B03D0
S11308F081E090E090938100809380008091B60223
S11309009091B7028C32914008F490CF8091B2025A
S11309109091B3020E947B03109281001092800098
S11309201092B7021092B6021092B9021092B80255
S11309307DCF0E946003CE010E946E0381E090E0AF
S113094090937B0080937A00CF9911C08FE39CE948
S11309500197F1F700C0000081E090E090937D00E2
S113096080937C009093B9028093B80204C01092E3
S11309707D0010927C008091B8029091B902019799
S113098009F054CF8091B6029091B702803491401F
S113099060F080916000909161000E947B0381E08F
S11309A090E090938100809380008091B6029091B2
S11309B0B7028E35914008F439CF8091B2029091FC
S11309C0B3020E947B031092810010928000109267
S11309D0B7021092B6021092B9021092B80226CF52
S11309E00E946003CE010E946E0381E090E0909328
S11309F07B0080937A001ACF0E946703E6E7F0E059
S1130A001582148213861286178216821186108626
S1090A100DCFF894FFCFA6
S1130A169600009CAA55CCA366AF60BCCC6C53FF71
S1130A2600553C0FF08F000002000000000000009B
S1130A3600000A1A611E1600630000000200B65385
S1130A460643BE0FE4433528734D9034E7386153AB
S1130A564957F75F4E64A5686860AA4FC872850A4D
S1130A66556C00C0C101C30302C2C60607C705C54B
S1130A76C404CC0C0DCD0FCFCE0E0ACACB0BC909BC
S1130A8608C8D81819D91BDBDA1A1EDEDF1FDD1DCC
S1130A961CDC14D4D515D71716D6D21213D311D1FC
S1130AA6D010F03031F133F3F23236F6F737F5354C
S1130AB634F43CFCFD3DFF3F3EFEFA3A3BFB39F97C
S1130AC6F83828E8E929EB2B2AEAEE2E2FEF2DED4C
S1130AD6EC2CE42425E527E7E62622E2E323E121BC
S1130AE620E0A06061A163A3A26266A6A767A565CC
S1130AF664A46CACAD6DAF6F6EAEAA6A6BAB69A93C
S1130B06A86878B8B979BB7B7ABABE7E7FBF7DBD4B
S1130B16BC7CB47475B577B7B67672B2B373B1717B
S1130B2670B050909151935352929656579755954B
S1130B3694549C5C5D9D5F9F9E5E5A9A9B5B9959FB
S1130B465898884849894B8B8A4A4E8E8F4F8D4DCB
S1130B564C8C44848545874746868242438341813B
S1130B66804000C1814001C0804101C0804100C174
S1130B76814001C0804100C1814000C1814001C063
S1130B86804101C0804100C1814000C1814001C053
S1130B96804100C1814001C0804101C0804100C143
S1130BA6814001C0804100C1814000C1814001C033
S1130BB6804100C1814001C0804101C0804100C123
S1130BC6814000C1814001C0804101C0804100C113
S1130BD6814001C0804100C1814000C1814001C003
S1130BE6804101C0804100C1814000C1814001C0F3
S1130BF6804100C1814001C0804101C0804100C1E3
S1130C06814000C1814001C0804101C0804100C1D2
S1130C16814001C0804100C1814000C1814001C0C2
S1130C26804100C1814001C0804101C0804100C1B2
S1130C36814001C0804100C1814000C1814001C0A2
S1130C46804101C0804100C1814000C1814001C092
S1130C56804100C1814001C0804101C0804100C182
S1050C668140C7
S9030000FC
